{
  "_format": "hh-sol-artifact-1",
  "contractName": "SimplePonzi",
  "sourceName": "contracts/SimplePonzi.sol",
  "abi": [
    {
      "stateMutability": "payable",
      "type": "fallback"
    },
    {
      "inputs": [],
      "name": "currentInvestment",
      "outputs": [
        {
          "internalType": "uint256",
          "name": "",
          "type": "uint256"
        }
      ],
      "stateMutability": "view",
      "type": "function"
    },
    {
      "inputs": [],
      "name": "currentInvestor",
      "outputs": [
        {
          "internalType": "address payable",
          "name": "",
          "type": "address"
        }
      ],
      "stateMutability": "view",
      "type": "function"
    }
  ],
  "bytecode": "0x6080604052600060015534801561001557600080fd5b506101d2806100256000396000f3fe60806040526004361061002d5760003560e01c8063523e27d414610106578063b2667cd0146101475761002e565b5b6000600a600b600154028161003f57fe5b04905080341161004e57600080fd5b60008060009054906101000a900473ffffffffffffffffffffffffffffffffffffffff169050336000806101000a81548173ffffffffffffffffffffffffffffffffffffffff021916908373ffffffffffffffffffffffffffffffffffffffff160217905550346001819055508073ffffffffffffffffffffffffffffffffffffffff166108fc349081150290604051600060405180830381858888f19350505050158015610101573d6000803e3d6000fd5b505050005b34801561011257600080fd5b5061011b610172565b604051808273ffffffffffffffffffffffffffffffffffffffff16815260200191505060405180910390f35b34801561015357600080fd5b5061015c610196565b6040518082815260200191505060405180910390f35b60008054906101000a900473ffffffffffffffffffffffffffffffffffffffff1681565b6001548156fea26469706673582212206512cb8435c81634196c87d3db068d86741864f1ccb2124915c561fcddc1f8c064736f6c63430007030033",
  "linkReferences": {},
  "deployedLinkReferences": {}
}